:100000000C94AB000C94C8000C94C8000C94C8006D
:100010000C94C8000C94C8000C94C8000C94C80040
:100020000C94C8000C94C8000C94C8000C94C80030
:100030000C94C8000C94C8000C94C8000C94C80020
:100040000C94C8000C94C8000C94C8000C94C80010
:100050000C94C8006E616E00696E660000407A10F4
:10006000F35A00A0724E18090010A5D4E80000E869
:100070007648170000E40B54020000CA9A3B0000C7
:1000800000E1F505000080969800000040420F0056
:100090000000A08601000000102700000000E80317
:1000A000000000006400000000000A0000000000E2
:1000B0000100000000002C76D888DC674F0823DFA1
:1000C000C1DFAE59E1B1B796E5E3E453C63AE65174
:1000D000997696E8E6C28426EB898C9B62ED407C9B
:1000E0006FFCEFBC9C9F40F2BAA56FA5F490055A37
:1000F0002AF75C936B6CF9676DC11BFCE0E40D475C
:10010000FEF520E6B500D0ED902E0300943577057E
:100110000080841E080000204E0A000000C80C3336
:100120003333330F986E12831141EF8D2114893BC5
:10013000E65516CFFEE6DB18D1844B381BF77C1D45
:10014000901DA4BBE424203284725E228100C9F198
:1001500024ECA1E53D2711241FBECFE5D8E0DEBF8A
:10016000CDBF12E0A0E6B0E0E2E7F3E202C0059006
:100170000D92A432B107D9F712E0A4E2B2E001C0B7
:100180001D92A433B107E1F70E940F030C94B7113D
:100190000C9400008BE587BB8BE381BB84EA88BBB2
:1001A00084E282BB80E197E229E130E0F9013197F6
:1001B000F1F70197D9F7B2990AC0B59908C0B79974
:1001C00006C0829904C0109225021092240286EB88
:1001D00088BB8DE282BB80E197E229E130E0F90142
:1001E0003197F1F70197D9F7B2990AC0B59908C0CC
:1001F000B79906C0829904C0109227021092260275
:100200008DEA88BB86E382BB80E197E229E130E09A
:10021000F9013197F1F70197D9F7B2990AC0B59969
:1002200008C0B79906C0829904C0109229021092A2
:1002300028028FEB88BB8FE382BB80E197E229E144
:1002400030E0F9013197F1F70197D9F7B29B0CC073
:10025000B59B0AC0B79B08C0829B06C081E090E0B6
:1002600090932B0280932A0208958BE587BB8BE342
:1002700081BB84EA88BB84E282BB80E197E229E10A
:1002800030E0F9013197F1F70197D9F7B2990AC037
:10029000B59908C0B79906C0829904C0109225028A
:1002A0001092240286EB88BB8DE282BB80E197E24C
:1002B00029E130E0F9013197F1F70197D9F7B29BC5
:1002C0000CC0B59B0AC0B79B08C0829B06C081E0EA
:1002D00090E090932702809326028DEA88BB86E304
:1002E00082BB80E197E229E130E0F9013197F1F733
:1002F0000197D9F7B29B0CC0B59B0AC0B79B08C049
:10030000829B06C081E090E09093290280932802AE
:100310008FEB88BB8FE382BB80E197E229E130E07D
:10032000F9013197F1F70197D9F7B29B0CC0B59B52
:100330000AC0B79B08C0829B06C081E090E0909302
:100340002B0280932A0208958BE587BB8BE381BB48
:1003500084EA88BB84E282BB80E197E229E130E055
:10036000F9013197F1F70197D9F7B29B0CC0B59B12
:100370000AC0B79B08C0829B06C081E090E09093C2
:1003800025028093240286EB88BB8DE282BB80E14C
:1003900097E229E130E0F9013197F1F70197D9F7B8
:1003A000B29B0CC0B59B0AC0B79B08C0829B06C01D
:1003B00081E090E090932702809326028DEA88BB2B
:1003C00086E382BB80E197E229E130E0F9013197D1
:1003D000F1F70197D9F7B29B0CC0B59B0AC0B79B48
:1003E00008C0829B06C081E090E090932902809330
:1003F00028028FEB88BB8FE382BB80E197E229E183
:1004000030E0F9013197F1F70197D9F7B2990AC0B5
:10041000B59908C0B79906C0829904C010922B0202
:1004200010922A0208958BE587BB8BE381BB84EA97
:1004300088BB84E282BB80E197E229E130E0F901E8
:100440003197F1F70197D9F7B29B0CC0B59B0AC061
:10045000B79B08C0829B06C081E090E09093250284
:100460008093240286EB88BB8DE282BB80E197E219
:1004700029E130E0F9013197F1F70197D9F7B29905
:100480000AC0B59908C0B79906C0829904C01092F5
:100490002702109226028DEA88BB86E382BB80E1A8
:1004A00097E229E130E0F9013197F1F70197D9F7A7
:1004B000B2990AC0B59908C0B79906C0829904C01C
:1004C00010922902109228028FEB88BB8FE382BB27
:1004D00080E197E229E130E0F9013197F1F70197E6
:1004E000D9F7B2990AC0B59908C0B79906C08299E0
:1004F00004C010922B0210922A0208958BE587BB4C
:100500008BE381BB84EA88BB84E282BB80E197E213
:1005100029E130E0F9013197F1F70197D9F7B29964
:100520000AC0B59908C0B79906C0829904C0109254
:1005300025021092240286EB88BB8DE282BB80E10B
:1005400097E229E130E0F9013197F1F70197D9F706
:10055000B29B0CC0B59B0AC0B79B08C0829B06C06B
:1005600081E090E090932702809326028DEA88BB79
:1005700086E382BB80E197E229E130E0F90131971F
:10058000F1F70197D9F7B29B0CC0B59B0AC0B79B96
:1005900008C0829B06C081E090E09093290280937E
:1005A00028028FEB88BB8FE382BB80E197E229E1D1
:1005B00030E0F9013197F1F70197D9F7B2990AC004
:1005C000B59908C0B79906C0829904C010922B0251
:1005D00010922A02089585E587BB85E381BB8AEAEC
:1005E00088BB8AE282BB80E197E229E130E0F90131
:1005F0003197F1F70197D9F7B59B10C0B19B0EC0A9
:10060000B39B0CC0B79B0AC0819B08C0839B06C0EC
:1006100081E090E0909325028093240208950F9347
:100620001F93CF93DF9380E00E94570B80E060E040
:100630000E94480C80E690E00E949E0B8AE061E0F8
:100640000E94480C8BE690E00E949E0B83E062E0E3
:100650000E94480C86E790E00E949E0B80E395E79D
:1006600029E130E0F9013197F1F70197D9F781E0FD
:1006700060E00E94290B81E060E00E94480C86E85F
:1006800090E00E949E0B81E061E00E94480C85E9A9
:1006900090E00E949E0B80E060E00E94480C81EA9E
:1006A00090E00E949E0B80EF8ABB8FE08BBB09E13C
:1006B00010E088EA91E60197F1F78FEE8BBBCA99BB
:1006C00024C083EA90E00E949E0B80912E029091BC
:1006D0002F029C0163E0220F331F6A95E1F7880F18
:1006E000991F280F391F295F3F4F30932F02209306
:1006F0002E02809130029091310201969093310246
:1007000080933002C89BFECFECC3C99924C085EA10
:1007100090E00E949E0B80912E0290912F029C01EE
:1007200043E0220F331F4A95E1F7880F991F280FE6
:10073000391F2C5F3F4F30932F0220932E02809160
:1007400030029091310201969093310280933002F1
:10075000C99BFECFC6C3C89924C087EA90E00E9417
:100760009E0B80912E0290912F029C01A3E0220FFC
:10077000331FAA95E1F7880F991F280F391F2F5FA4
:100780003F4F30932F0220932E02809130029091A0
:10079000310201969093310280933002CA9BFECFC2
:1007A000A0C3CB999EC380912C0290912D02892BDE
:1007B00009F094C18091320290913302892B09F0A3
:1007C0008DC181E060E00E94290B83E062E00E941D
:1007D000480C89EA90E00E949E0B0E94A40180913F
:1007E0002402909125020197C1F5809126029091F3
:1007F0002702019791F58091280290912902019793
:1008000061F580912A0290912B02892B31F581E0CC
:1008100060E00E94290B84E060E00E94480C85EBB8
:1008200090E00E949E0B80E061E00E94480C80EC0A
:1008300090E00E949E0B80E062E00E94480C8BECEE
:1008400090E00E949E0B80E395E7F8013197F1F765
:100850000197D9F781E090E040C00E941302809197
:10086000240290912502019709F03CC08091260254
:1008700090912702892BB1F580912802909129024D
:10088000892B81F580912A0290912B02892B51F5B9
:1008900081E060E00E94290B84E060E00E94480C47
:1008A00085EB90E00E949E0B80E061E00E94480C86
:1008B0008FED90E00E949E0B80E062E00E94480C69
:1008C0008BEC90E00E949E0B80E395E7F801319756
:1008D000F1F70197D9F782E090E09093330280938B
:1008E0003202FCC00E94EB0280912402909125020A
:1008F000019761F58091260290912702892B31F5AD
:1009000081E060E00E94290B84E060E00E94480CD6
:1009100085EB90E00E949E0B80E061E00E94480C15
:100920008AEE90E00E949E0B80E062E00E94480CFC
:100930008BEC90E00E949E0B80E395E7F8013197E5
:10094000F1F70197D9F783E090E0C7CF0E94CA0082
:100950008091240290912502892BC1F58091260275
:1009600090912702892B91F580912802909129027C
:10097000892B61F580912A0290912B02019731F524
:1009800081E060E00E94290B84E060E00E94480C56
:1009900085EB90E00E949E0B80E061E00E94480C95
:1009A00085EF90E00E949E0B80E062E00E94480C80
:1009B0008BEC90E00E949E0B80E395E7F801319765
:1009C000F1F70197D9F784E090E087CF0E943501D5
:1009D0008091240290912502892BC1F580912602F5
:1009E00090912702019791F5809128029091290218
:1009F000019761F580912A0290912B02019731F5C0
:100A000081E060E00E94290B84E060E00E94480CD5
:100A100085EB90E00E949E0B80E061E00E94480C14
:100A200080E091E00E949E0B80E062E00E94480C12
:100A30008BEC90E00E949E0B80E395E7F8013197E4
:100A4000F1F70197D9F785E090E047CF0E947E0249
:100A50008091240290912502892BC1F58091260274
:100A600090912702019791F5809128029091290297
:100A7000019761F580912A0290912B02892B31F523
:100A800081E060E00E94290B84E060E00E94480C55
:100A900085EB90E00E949E0B80E061E00E94480C94
:100AA0008BE091E00E949E0B80E062E00E94480C87
:100AB0008BEC90E00E949E0B80E395E7F801319764
:100AC000F1F70197D9F786E090E007CF84E060E086
:100AD0000E94480C86E191E00E949E0B80912C02BE
:100AE00090912D020197B9F48091320290913302D6
:100AF000892B89F481E060E00E94290B80E060E0AE
:100B00000E94480C86E291E00E949E0B89E060E022
:100B10000E94480CE4C180913202909133028130EE
:100B2000910519F581E060E00E94290B80E060E00A
:100B30000E94480C8FE291E00E949E0B83E061E0EE
:100B40000E94480C83E491E00E949E0B86E061E0E5
:100B50000E94480C83E491E00E949E0B88E061E0D3
:100B60000E94480C87EA90E06CC18230910509F040
:100B700053C081E060E00E94290B80E060E00E94A9
:100B8000480C8FE291E00E949E0B83E061E00E949E
:100B9000480C83E491E00E949E0B86E061E00E9495
:100BA000480C83E491E00E949E0B88E061E00E9483
:100BB000480C87EA90E00E949E0B83E062E00E946E
:100BC000480C83E491E00E949E0B86E062E00E9464
:100BD000480C87EA90E00E949E0B88E062E00E9449
:100BE000480C83E491E00E949E0B83E063E00E9446
:100BF000480C87EA90E00E949E0B86E063E00E942A
:100C0000480C83E491E00E949E0B88E063E00E9420
:100C1000480C83E491E045C18330910539F581E0CA
:100C200060E00E94290B80E060E00E94480C85E4AF
:100C300091E00E949E0B83E061E00E94480C83E4F7
:100C400091E00E949E0B88E061E00E94480C87EAD8
:100C500090E00E949E0B83E062E00E94480C87EACD
:100C600090E00E949E0B88E062E02FC184309105E5
:100C700009F053C081E060E00E94290B80E060E051
:100C80000E94480C8FE291E00E949E0B83E061E09D
:100C90000E94480C83E491E00E949E0B86E061E094
:100CA0000E94480C83E491E00E949E0B88E061E082
:100CB0000E94480C83E491E00E949E0B83E062E076
:100CC0000E94480C83E491E00E949E0B86E062E063
:100CD0000E94480C87EA90E00E949E0B88E062E048
:100CE0000E94480C83E491E00E949E0B83E063E045
:100CF0000E94480C87EA90E00E949E0B86E063E029
:100D00000E94480C83E491E00E949E0B88E063E01F
:100D10000E94480C83E491E056C08530910509F0AB
:100D20006BC081E060E00E94290B80E060E00E94DF
:100D3000480C8FE291E00E949E0B83E061E00E94EC
:100D4000480C83E491E00E949E0B86E061E00E94E3
:100D5000480C83E491E00E949E0B88E061E00E94D1
:100D6000480C83E491E00E949E0B83E062E00E94C5
:100D7000480C83E491E00E949E0B86E062E00E94B2
:100D8000480C87EA90E00E949E0B88E062E00E9497
:100D9000480C87EA90E00E949E0B83E063E00E948B
:100DA000480C87EA90E00E949E0B86E063E00E9478
:100DB000480C83E491E00E949E0B88E063E00E946F
:100DC000480C87EA90E00E949E0B8DE061E00E9453
:100DD000480C87EA90E00E949E0B80E161E00E944F
:100DE000480C87EA90E00E949E0B82E161E00E943D
:100DF000480C87EA90E06DC0069709F070C081E06A
:100E000060E00E94290B80E060E00E94480C8FE2C5
:100E100091E00E949E0B83E061E00E94480C83E415
:100E200091E00E949E0B86E061E00E94480C83E402
:100E300091E00E949E0B88E061E00E94480C83E4F0
:100E400091E00E949E0B83E062E00E94480C83E4E4
:100E500091E00E949E0B86E062E00E94480C87EAC7
:100E600090E00E949E0B88E062E00E94480C87EAB6
:100E700090E00E949E0B83E063E00E94480C87EAAA
:100E800090E00E949E0B86E063E00E94480C83E4A1
:100E900091E00E949E0B88E063E00E94480C87EA84
:100EA00090E00E949E0B8DE061E00E94480C87EA72
:100EB00090E00E949E0B80E161E00E94480C87EA6E
:100EC00090E00E949E0B82E161E00E94480C83E466
:100ED00091E00E949E0B1092330210923202CB9B43
:100EE000FECF8FED8BBBCA9923C08FE491E00E94A7
:100EF0009E0B80912E0290912F029C01E3E0220F25
:100F0000331FEA95E1F7880F991F280F391F285FD3
:100F10003F4F30932F0220932E0280913002909108
:100F2000310201969093310280933002C89BFECF2C
:100F3000C99923C081E591E00E949E0B80912E0209
:100F400090912F029C0163E0220F331F6A95E1F715
:100F5000880F991F280F391F2B5F3F4F30932F02A7
:100F600020932E028091300290913102019690934D
:100F7000310280933002C99BFECFC89922C083E51D
:100F800091E00E949E0B80912E0290912F029C0175
:100F9000220F331F220F331F280F391F2F5F3F4FA0
:100FA000220F331F30932F0220932E0280913002A4
:100FB0009091310201969093310280933002CA9B46
:100FC000FECFCB9921C083E491E00E949E0B8091DB
:100FD0002E0290912F029C01B3E0220F331FBA958D
:100FE000E1F7880F991F280F391F30932F022093A4
:100FF0002E0280913002909131020196909331023D
:1010000080933002CB9BFECF8FEB8BBBCA9924C061
:1010100085E591E00E949E0B80912E0290912F0217
:101020009C01F3E0220F331FFA95E1F7880F991F17
:10103000280F391F275F3F4F30932F0220932E0236
:101040008091300290913102019690933102809309
:101050003002C89BFECF6EC0C99924C087E591E0DD
:101060000E949E0B80912E0290912F029C0173E0B2
:10107000220F331F7A95E1F7880F991F280F391F28
:101080002A5F3F4F30932F0220932E02809130022F
:101090009091310201969093310280933002C99B66
:1010A000FECF48C0C89924C089E591E00E949E0BFC
:1010B00080912E0290912F029C0153E0220F331F4A
:1010C0005A95E1F7880F991F280F391F2D5F3F4F61
:1010D00030932F0220932E028091300290913102A2
:1010E00001969093310280933002CA9BFECF22C0BA
:1010F000CB9920C081E060E00E94290B81E060E094
:101100000E94480C86E890E00E949E0B81E061E01E
:101110000E94480C85E990E00E949E0B80E060E010
:101120000E94480C81EA90E00E949E0B10922D02D2
:1011300010922C028FE78BBBC8991BC080912C02A8
:1011400090912D020197B1F580E060E00E94480C7B
:1011500081EA90E00E949E0B80E061E00E94480CD2
:101160008BE591E00E949E0B10922D0210922C02B2
:1011700021C0C9991DC080912C0290912D02892B0C
:10118000C9F480E061E00E94480C81EA90E00E948E
:101190009E0B80E060E00E94480C8BE591E00E948D
:1011A0009E0B81E090E090932D0280932C0202C070
:1011B000CA9989B3809130029091310204970CF45E
:1011C00078CA109231021092300281E060E00E94F1
:1011D000290B83E062E00E94480C89EA90E00E94BB
:1011E0009E0B80912E0290912F022CE18C3E920753
:1011F00009F4BFC02CE18D3E92074CF42CE1883EEF
:101200009207A1F08A5E9C4109F053CA62C02DE1A9
:101210008830920709F441C12DE18E33920709F419
:101220008CC1805F9C4109F044CAE7C010922F0234
:1012300010922E020E94A401809124029091250216
:101240000197E1F580912602909127020197B1F56F
:10125000C0912802D0912902C130D10579F5809141
:101260002A0290912B02892B49F581E060E00E94CF
:10127000290B84E060E00E94480C8DE591E00E941B
:101280009E0B80E061E00E94480C87E691E00E949E
:101290009E0B80E062E00E94480C83E791E00E9490
:1012A0009E0B80E063E00E94480C85E891E00E947C
:1012B0009E0BD0933302C0933202FBC981E060E001
:1012C0000E94290B84E060E00E94480C8DE591E0CB
:1012D00088C110922F0210922E020E941302809158
:1012E0002402909125020197C9F5809126029091E0
:1012F0002702892B99F58091280290912902892B48
:1013000069F580912A0290912B02892B39F581E0B1
:1013100060E00E94290B84E060E00E94480C86EAAD
:1013200091E00E949E0B80E061E00E94480C87E6FD
:1013300091E00E949E0B80E062E00E94480C83E7EF
:1013400091E00E949E0B80E063E00E94480C85E8DB
:1013500091E00E949E0B82E090E034C181E060E069
:101360000E94290B84E060E00E94480C86EA91E02C
:1013700038C110922F0210922E020E94EB0280912F
:10138000240290912502019769F58091260290919F
:101390002702892B39F581E060E00E94290B84E067
:1013A00060E00E94480C80EB91E00E949E0B80E080
:1013B00061E00E94480C87E691E00E949E0B80E06D
:1013C00062E00E94480C83E791E00E949E0B80E05F
:1013D00063E00E94480C85E891E00E949E0B83E048
:1013E00090E0F0C081E060E00E94290B84E060E0C2
:1013F0000E94480C80EB91E0F4C010922F021092F2
:101400002E020E94CA008091240290912502892B0D
:10141000C9F58091260290912702892B99F5809138
:10142000280290912902892B69F580912A029091D6
:101430002B02019739F581E060E00E94290B84E0DE
:1014400060E00E94480C8AEB91E00E949E0B80E0D5
:1014500061E00E94480C87E691E00E949E0B80E0CC
:1014600062E00E94480C83E791E00E949E0B80E0BE
:1014700063E00E94480C85E891E00E949E0B84E0A6
:1014800090E0A0C081E060E00E94290B84E060E071
:101490000E94480C8AEB91E0A4C010922F02109297
:1014A0002E020E9435018091240290912502892B01
:1014B000C9F58091260290912702019799F58091B4
:1014C000280290912902019769F580912A02909152
:1014D0002B02019739F581E060E00E94290B84E03E
:1014E00060E00E94480C84EC91E00E949E0B80E03A
:1014F00061E00E94480C8EEC91E00E949E0B80E01F
:1015000062E00E94480C83E791E00E949E0B80E01D
:1015100063E00E94480C85E891E00E949E0B85E004
:1015200090E050C081E060E00E94290B84E060E020
:101530000E94480C84EC91E054C010922F0210924B
:101540002E020E947E028091240290912502892B16
:1015500009F03DC080912602909127020197B9F5CC
:101560008091280290912902019789F580912A02A1
:1015700090912B02892B59F581E060E00E94290BA4
:1015800084E060E00E94480C89ED91E00E949E0B8F
:1015900080E061E00E94480C87E691E00E949E0B8B
:1015A00080E062E00E94480C83E791E00E949E0B7D
:1015B00080E063E00E94480C85E891E00E949E0B69
:1015C00086E090E0909333028093320272C881E00B
:1015D00060E00E94290B84E060E00E94480C89EDE5
:1015E00091E00E949E0B80E061E00E94480C87E938
:1015F00091E00E949E0B5DC884B3877884BBA99A52
:10160000A89881E08A95F1F721E0AA9A822F8A951D
:10161000F1F783B38695869586958295807F922F84
:101620009A95F1F7AA98922F9A95F1F7AA9A922F84
:101630009A95F1F793B3922F9A95F1F7AA98922F72
:101640009A95F1F787FDE1CFA99884B3886784BBA9
:101650000895382F662311F4A89801C0A89A21E0B4
:10166000822F8A95F1F7AA9A95B3832F82958F706E
:10167000880F880F880F9778892B85BB822F8A95D2
:10168000F1F7AA98822F8A95F1F7AA9A85B33F704D
:10169000330F330F330F8778832B85BB822F8A95C7
:1016A000F1F7AA982A95F1F70E94FC0A08951F9372
:1016B000CF93DF93182F88EA91E60197F1F785B36E
:1016C000877885BBAA98A998A89884B3886784BBB3
:1016D000A29AA09AA19A81E0982F9A95F1F7AA9AD6
:1016E000AC9A982F9A95F1F7AA988A95F1F784E623
:1016F0008A95F1F788E260E00E94290B812F8860CB
:1017000060E00E94290B812F8C6060E00E94290B11
:1017100080E460E00E94290BC3EED1E0899161E092
:101720000E94290B82E0C332D807C1F781E060E054
:101730000E94290BDF91CF911F910895CF93DF93E2
:10174000EC0110C0853251F4219688818053883095
:1017500028F085E261E00E94290B888161E00E9407
:10176000290B21968881882369F7DF91CF9108950D
:101770001F93CF93DF93EC01FC01849114C0853259
:1017800061F42196FE011491812F8053883028F056
:1017900085E261E00E94290B812F61E00E94290B04
:1017A0002196FE018491882351F7DF91CF911F91FB
:1017B0000895EF92FF920F931F93DF93CF9300D082
:1017C00000D00F92CDB7DEB78C01F62E97FF08C080
:1017D0008DE261E00E94290B109501951F4F04C016
:1017E00080E261E00E94290BFE01319685E0DF0175
:1017F0001D928A95E9F7FE0135960DC0C8016AE091
:1018000070E00E94E10F8083C8016AE070E00E94EE
:10181000E10F8B0131970115110581F7BFEFFB1621
:1018200081F420E030E0AE014F5F5F4F02C02F5FD8
:101830003F4FFA01E20FF31F80818823C1F3890132
:1018400008C08F2D992787FD909505E010E0081BB3
:10185000190B7E010894E11CF11CE00EF11E09C079
:10186000F70181917F01805D61E00E94290B0F5F8C
:101870001F4F05301105A4F30F900F900F900F909C
:101880000F90CF91DF911F910F91FF90EF900895EE
:10189000843178F4623031F0633031F0613029F412
:1018A000806403C08C5E01C08C5A806860E00E9436
:1018B000290B0895A1E1B0E0E0E6FCE00C94F40F00
:1018C0003C017F876E876A01FC0117821682838143
:1018D00081FD03C06FEF7FEF6FC39E012F5F3F4F0E
:1018E000398B288BF3012381EE85FF8523FD8591BC
:1018F00023FF8191FF87EE87882309F45AC385323D
:1019000051F4EE85FF8523FD859123FF8191FF87AB
:10191000EE87853229F490E0B3010E942D11E2CFC9
:10192000982F10E0882499241032B0F49B3269F08B
:101930009C3228F4903251F0933271F40BC09D32F6
:1019400039F0903349F4116028C01260146025C04A
:10195000186023C0106121C017FD2AC0892F805351
:101960008A3078F416FF06C0FAE09F9E902C11246E
:10197000980E13C03AE0839E802C1124880E1062CA
:101980000CC09E3221F416FD14C3106406C09C36B0
:1019900011F4106802C0983659F4EE85FF8523FDD6
:1019A000959123FF9191FF87EE87992309F0BCCF92
:1019B000892F8554833020F4812F8061905E07C089
:1019C000892F8556833008F09FC1812F8F7E86FD39
:1019D00002C076E0972E6FE3F62EF822953619F4C2
:1019E000F0E4FF2A07C0963619F420E8F22A02C074
:1019F00091109A94F7FE0AC03BE3391518F45CE3A2
:101A0000B52E02C0B92CB39427E009C047E04915B0
:101A100020F4BB2447E0942EF7CF292DBB24C60128
:101A200004969D878C87F601608171818281938104
:101A3000AE014F5F5F4F0B2D0E943F106C0109817B
:101A4000202E332400FF04C003FD02C01DE209C0A4
:101A5000F1FE02C01BE205C0F2FC02C010E001C0B2
:101A600010E2C1018C709070892BB9F1112311F42F
:101A700083E001C084E0881510F088240AC0881A29
:101A8000F3FC07C080E290E0B3010E942D118A941C
:101A9000C9F7112329F0812F90E0B3010E942D1185
:101AA00023FE03C004E510E00EC008E510E00BC003
:101AB000E114F10409F0805290E0B3010E942D116D
:101AC0000F5F1F4F05C0EF2CFF24F0E1EF22FF2432
:101AD000F8018491882361F714C1F7FE12C0BC0C91
:101AE00024FE04C08A81813309F4BA941B141CF0CB
:101AF000BB24B3942DC0F8E0FB1550F538E0B32EAD
:101B000027C0F6FC25C0892D90E08C159D054CF072
:101B10002CEFC2162FEFD20624F030E8F32A01C0D2
:101B20009A94992049F0E2E0F0E0EC0FFD1FE90DF6
:101B3000F11D80818033A1F3F7FE0AC0B92CB39464
:101B4000892D90E0C816D90614F0992401C09C187C
:101B5000F7FC03C025E030E009C01C141D041CF094
:101B600021E030E003C096012F5F3F4F112311F0B9
:101B70002F5F3F4F992029F0892D90E00196280F83
:101B8000391F882D90E02817390714F0882401C0E8
:101B9000821A4F2C5524C20189709070892B39F01C
:101BA00008C080E290E0B3010E942D118A94882041
:101BB000C1F7112329F0812F90E0B3010E942D116C
:101BC00043FE07C008C080E390E0B3010E942D11DE
:101BD0008A948820C1F7F7FE46C08601D7FE02C06E
:101BE00000E010E076010894E11CF11CE01AF10A13
:101BF00041E050E04C0F5D1FE40EF51E26014B182E
:101C00005108892D90E0AA24BB24A81AB90A5FEFD5
:101C10000F3F150729F48EE290E0B3010E942D11C9
:101C2000C016D10634F0401651061CF4F70180812D
:101C300001C080E3015010400894E11CF11C0A151A
:101C40001B052CF090E0B3010E942D11E0CF0C1584
:101C50001D0539F49A81963318F4953311F424FE56
:101C600081E390E04BC08A81813309F00F7E90E0E0
:101C7000B3010E942D119920A1F08EE290E0B301F2
:101C80000E942D1112E0E1E0F0E0EC0FFD1FE10FEA
:101C9000F11D1F5F808190E0B3010E942D119A9485
:101CA00091F744FC03C085E690E002C085E490E033
:101CB000B3010E942D11D7FC05C0C114D10441F419
:101CC00004FF06C0D094C194D108D3948DE201C022
:101CD0008BE290E0B3010E942D1180E305C08F5F7D
:101CE00026EF3FEFC20ED31E3AE0C316D104BCF775
:101CF00090E0B3010E942D11C601C096B3010E946D
:101D00002D11CC84DD8452C1933631F0933799F094
:101D1000933509F059C023C0F601808189835E01A3
:101D20000894A11CB11C22E030E0C20ED31E21E0B9
:101D3000E22EF12C12C0F601A080B18016FD03C086
:101D40006FEF7FEF02C0692D70E022E030E0C20E3D
:101D5000D31EC5010E9422117C011F7713C0F6011A
:101D6000A080B18016FD03C06FEF7FEF02C0692D28
:101D700070E022E030E0C20ED31EC5010E941711B0
:101D80007C01106813FF07C01BC080E290E0B30124
:101D90000E942D118A94882D90E0E816F906A8F388
:101DA0000FC0F50117FD859117FF81915F0190E04C
:101DB000B3010E942D1181108A940894E108F10862
:101DC000E114F10471F7F2C0943611F0993689F5F7
:101DD00017FF08C0F601208131814281538184E0E0
:101DE00090E00AC0F601808191819C01442737FD73
:101DF0004095542F82E090E0C80ED91E9FE6F92E40
:101E0000F12257FF09C050954095309521953F4FDD
:101E10004F4F5F4F90E8F92ACA01B901AE014F5FF9
:101E20005F4F2AE030E00E945911E82EE889EE1A4F
:101E300041C0953721F41F7E2AE030E01CC0197F95
:101E40009F3661F0903720F4983509F0B2C00FC08A
:101E5000903739F0983709F0ACC004C028E030E082
:101E60000AC0106114FD146020E130E004C014FDCC
:101E7000166020E132E017FF08C0F6016081718131
:101E80008281938144E050E008C0F6018081918115
:101E9000BC0180E090E042E050E0C40ED51EAE01EF
:101EA0004F5F5F4F0E945911E82E5889E51A8FE75E
:101EB000F82EF122F6FE0BC08EEFF822E91438F46A
:101EC000F4FE07C0F2FC05C09FEEF92202C01E2DF1
:101ED00001C0192DF4FE0DC0FE01EE0DF11D808133
:101EE000803319F4E9EEFE2208C01F5FF2FE05C040
:101EF00003C08F2D867809F01F5F0F2DF3FC14C0EF
:101F0000F0FE0FC0181510F09E2C0BC09E2C980CE4
:101F1000911A182D06C080E290E0B3010E942D11A5
:101F20001F5F1815C0F304C0181510F4811A01C002
:101F3000882404FF0FC080E390E0B3010E942D11BC
:101F400002FF1DC001FD03C088E790E00EC088E5D8
:101F500090E00BC0802F867891F001FF02C08BE2E9
:101F600001C080E2F7FC8DE290E0B3010E942D11E8
:101F700006C080E390E0B3010E942D119A94E91409
:101F8000C0F3EA94E1E0F0E0EC0FFD1FEE0DF11D6F
:101F9000808190E0B3010E942D11EE2091F706C0E0
:101FA00080E290E0B3010E942D118A948820C1F74D
:101FB00099CCF30166817781CB016196E2E10C94C3
:101FC000101097FB092E07260AD077FD04D043D0C6
:101FD00006D000201AF4709561957F4F0895F6F7AA
:101FE000909581959F4F08952F923F924F925F92C7
:101FF0006F927F928F929F92AF92BF92CF92DF9219
:10200000EF92FF920F931F93CF93DF93CDB7DEB77D
:10201000CA1BDB0B0FB6F894DEBF0FBECDBF099411
:102020002A88398848885F846E847D848C849B8468
:10203000AA84B984C884DF80EE80FD800C811B8176
:10204000AA81B981CE0FD11D0FB6F894DEBF0FBEA5
:10205000CDBFED010895AA1BBB1B51E107C0AA1F0C
:10206000BB1FA617B70710F0A61BB70B881F991F39
:102070005A95A9F780959095BC01CD010895283017
:1020800008F027E03327DA01990F311D87FD9160B1
:1020900000966105710539F432602E5F3D9330E39F
:1020A0002A95E1F708959F3F30F08038710561056A
:1020B00009F03C5F3C5F3D93913008F08068911DD2
:1020C000DF93CF931F930F93FF92EF92192F987F77
:1020D0009695E92F96959695E90FFF27EA54FF4FBD
:1020E00099273327EE24FF24A701E70105900894E0
:1020F000079428F4360FE71EF81E491F511D660F7E
:10210000771F881F991F0694A1F70590079428F45C
:10211000E70EF81E491F561FC11D770F881F991F14
:10212000661F0694A1F70590079428F4F80E491F3E
:10213000561FC71FD11D880F991F661F771F069452
:10214000A1F70590079420F4490F561FC71FD81F09
:10215000990F661F771F881F0694A9F78491109521
:10216000177041F0D695C79557954795F794E79422
:102170001A95C1F7ECE5F0E068941590159135914A
:102180006591959105907FE27395E118F10A430BF3
:10219000560BC90BD009C0F7E10CF11E431F561FA7
:1021A000C91FD01D7EF4703311F48A95E6CFE894F0
:1021B000015030F0080F0AF40027021708F4202F0E
:1021C0002395022F7A3328F079E37D932A95E9F756
:1021D00010C07D932A9589F6069497956795379553
:1021E00017951794E118F10A430B560BC90BD00948
:1021F00098F023957E9173957A3308F070E37C9381
:102200002013B8F77E9170617D9330F0839571E370
:102210007D9370E32A95E1F71124EF90FF900F91E1
:102220001F91CF91DF91992787FD90950895FC012B
:102230000590615070400110D8F7809590958E0FF1
:102240009F1F0895FC016150704001900110D8F764
:10225000809590958E0F9F1F08950F931F93CF9396
:10226000DF938C01EB018B8181FF1BC082FF0DC0CE
:102270002E813F818C819D812817390764F4E88184
:10228000F9810193F983E88306C0E885F985802FF9
:102290000995892B31F48E819F8101969F838E83CE
:1022A00002C00FEF1FEFC801DF91CF911F910F9177
:1022B0000895FA01AA27283051F1203181F1E894DC
:1022C0006F936E7F6E5F7F4F8F4F9F4FAF4FB1E029
:1022D0003ED0B4E03CD0670F781F891F9A1FA11D24
:1022E000680F791F8A1F911DA11D6A0F711D811D25
:1022F000911DA11D20D009F468943F912AE0269FEA
:1023000011243019305D3193DEF6CF010895462F48
:102310004770405D4193B3E00FD0C9F7F6CF462F29
:102320004F70405D4A3318F0495D31FD4052419392
:1023300002D0A9F7EACFB4E0A6959795879577954F
:102340006795BA95C9F700976105710508959B01D6
:10235000AC010A2E06945795479537952795BA955F
:10236000C9F7620F731F841F951FA01D0895F8946D
:02237000FFCF9D
:102372004C6F676963204761746500494320436875
:1023820065636B65720049443A313330323030381C
:102392002C20303135004175746F6D617469632092
:1023A2004D6F6465004D616E75616C204D6F6465A3
:1023B200003E00370034003100436865636B696E8C
:1023C20067204943004943204D6174636865640096
:1023D20049432069732037343030004C6F6164699F
:1023E2006E67205472757468207461626C6500496E
:1023F2004320697320373430320049432069732007
:102402003734303400494320697320373430380080
:1024120049432069732037343332004943206973BA
:102422002037343836004943206469646E277420AB
:102432004D61746368004943204E6F2E3A2000209C
:10244200204931204932204F202020493120493271
:10245200204F00300020204931202020204F00381A
:102462000035003200390036003300200049433A7B
:102472002020373430300049432020697320676FB1
:102482006F640056696577205472757468207461B0
:10249200626C653F00202059657320202020202097
:1024A200202020204E6F004943206973206E6F74F4
:1024B20020676F6F640049433A202037343032007E
:1024C20049433A2020373430340049433A202037F8
:1024D2003430380049433A202037343332004943FC
:1024E20020697320676F6F640049433A20203734B4
:1024F2003836000000040E0400000000040E1F0E17
:10250200040000040404041F0E04000A15110A0446
:102512000000000A1F1F0E040000000C12120C0023
:10252200000000040E1F0404040400010214080049
:0425320000000000A5
:00000001FF
